{
  "contractName": "Election",
  "abi": [
    {
      "constant": true,
      "inputs": [],
      "name": "sold",
      "outputs": [
        {
          "name": "",
          "type": "bool"
        }
      ],
      "payable": false,
      "stateMutability": "view",
      "type": "function"
    },
    {
      "constant": true,
      "inputs": [],
      "name": "salesDescription",
      "outputs": [
        {
          "name": "",
          "type": "string"
        }
      ],
      "payable": false,
      "stateMutability": "view",
      "type": "function"
    },
    {
      "constant": true,
      "inputs": [],
      "name": "candidatesCount",
      "outputs": [
        {
          "name": "",
          "type": "uint256"
        }
      ],
      "payable": false,
      "stateMutability": "view",
      "type": "function"
    },
    {
      "constant": true,
      "inputs": [
        {
          "name": "",
          "type": "uint256"
        }
      ],
      "name": "candidates",
      "outputs": [
        {
          "name": "id",
          "type": "uint256"
        },
        {
          "name": "name",
          "type": "string"
        },
        {
          "name": "voteCount",
          "type": "uint256"
        }
      ],
      "payable": false,
      "stateMutability": "view",
      "type": "function"
    },
    {
      "constant": true,
      "inputs": [],
      "name": "owner",
      "outputs": [
        {
          "name": "",
          "type": "address"
        }
      ],
      "payable": false,
      "stateMutability": "view",
      "type": "function"
    },
    {
      "constant": true,
      "inputs": [
        {
          "name": "",
          "type": "address"
        }
      ],
      "name": "voters",
      "outputs": [
        {
          "name": "",
          "type": "bool"
        }
      ],
      "payable": false,
      "stateMutability": "view",
      "type": "function"
    },
    {
      "inputs": [],
      "payable": true,
      "stateMutability": "payable",
      "type": "constructor"
    },
    {
      "constant": false,
      "inputs": [
        {
          "name": "_candidateId",
          "type": "uint256"
        }
      ],
      "name": "vote",
      "outputs": [],
      "payable": true,
      "stateMutability": "payable",
      "type": "function"
    }
  ],
  "bytecode": "0x60806040527397496425be79d8fabc7a103322f31774e482f6206000806101000a81548173ffffffffffffffffffffffffffffffffffffffff021916908373ffffffffffffffffffffffffffffffffffffffff16021790555060008060146101000a81548160ff0219169083151502179055506040518060400160405280601281526020017f566f6c766f205634302048462035362033320000000000000000000000000000815250600190805190602001906100bd9291906101d8565b50670de0b6b3a764000060025560006005556101136040518060400160405280600881526020017f706572736f6e203100000000000000000000000000000000000000000000000081525061015c60201b60201c565b6101576040518060400160405280600881526020017f706572736f6e203200000000000000000000000000000000000000000000000081525061015c60201b60201c565b6102fd565b6005600081548092919060010191905055506040518060600160405280600554815260200182815260200160008152506003600060055481526020019081526020016000206000820151816000015560208201518160010190805190602001906101c7929190610258565b506040820151816002015590505050565b828054600181600116156101000203166002900490600052602060002090601f016020900481019282601f1061021957805160ff1916838001178555610247565b82800160010185558215610247579182015b8281111561024657825182559160200191906001019061022b565b5b50905061025491906102d8565b5090565b828054600181600116156101000203166002900490600052602060002090601f016020900481019282601f1061029957805160ff19168380011785556102c7565b828001600101855582156102c7579182015b828111156102c65782518255916020019190600101906102ab565b5b5090506102d491906102d8565b5090565b6102fa91905b808211156102f65760008160009055506001016102de565b5090565b90565b6107198061030c6000396000f3fe6080604052600436106100705760003560e01c80632d35a8a21161004e5780632d35a8a2146101625780633477ee2e1461018d5780638da5cb5b1461024f578063a3ec138d146102a657610070565b80630121b93f1461007557806302c7e7af146100a3578063110c0198146100d2575b600080fd5b6100a16004803603602081101561008b57600080fd5b810190808035906020019092919050505061030f565b005b3480156100af57600080fd5b506100b861050d565b604051808215151515815260200191505060405180910390f35b3480156100de57600080fd5b506100e7610520565b6040518080602001828103825283818151815260200191508051906020019080838360005b8381101561012757808201518184015260208101905061010c565b50505050905090810190601f1680156101545780820380516001836020036101000a031916815260200191505b509250505060405180910390f35b34801561016e57600080fd5b506101776105be565b6040518082815260200191505060405180910390f35b34801561019957600080fd5b506101c6600480360360208110156101b057600080fd5b81019080803590602001909291905050506105c4565b6040518084815260200180602001838152602001828103825284818151815260200191508051906020019080838360005b838110156102125780820151818401526020810190506101f7565b50505050905090810190601f16801561023f5780820380516001836020036101000a031916815260200191505b5094505050505060405180910390f35b34801561025b57600080fd5b50610264610686565b604051808273ffffffffffffffffffffffffffffffffffffffff1673ffffffffffffffffffffffffffffffffffffffff16815260200191505060405180910390f35b3480156102b257600080fd5b506102f5600480360360208110156102c957600080fd5b81019080803573ffffffffffffffffffffffffffffffffffffffff1690602001909291905050506106ab565b604051808215151515815260200191505060405180910390f35b60008111801561032157506005548111155b610376576040517f08c379a00000000000000000000000000000000000000000000000000000000081526004018080602001828103825260228152602001806106cc6022913960400191505060405180910390fd5b600254341061041e576000809054906101000a900473ffffffffffffffffffffffffffffffffffffffff1673ffffffffffffffffffffffffffffffffffffffff166108fc3073ffffffffffffffffffffffffffffffffffffffff16319081150290604051600060405180830381858888f193505050501580156103fd573d6000803e3d6000fd5b506001600060146101000a81548160ff02191690831515021790555061048c565b6040517f08c379a00000000000000000000000000000000000000000000000000000000081526004018080602001828103825260178152602001807f736f72727921206e6f7420656e6f756768206d6f6e657900000000000000000081525060200191505060405180910390fd5b6001600460003373ffffffffffffffffffffffffffffffffffffffff1673ffffffffffffffffffffffffffffffffffffffff16815260200190815260200160002060006101000a81548160ff021916908315150217905550600360008281526020019081526020016000206002016000815480929190600101919050555050565b600060149054906101000a900460ff1681565b60018054600181600116156101000203166002900480601f0160208091040260200160405190810160405280929190818152602001828054600181600116156101000203166002900480156105b65780601f1061058b576101008083540402835291602001916105b6565b820191906000526020600020905b81548152906001019060200180831161059957829003601f168201915b505050505081565b60055481565b6003602052806000526040600020600091509050806000015490806001018054600181600116156101000203166002900480601f0160208091040260200160405190810160405280929190818152602001828054600181600116156101000203166002900480156106765780601f1061064b57610100808354040283529160200191610676565b820191906000526020600020905b81548152906001019060200180831161065957829003601f168201915b5050505050908060020154905083565b6000809054906101000a900473ffffffffffffffffffffffffffffffffffffffff1681565b60046020528060005260406000206000915054906101000a900460ff168156fe7468657265206973206e6f2063616e64696461746520776974682073756368204944a165627a7a723058202569a19a96b87f600a31069af62c27a07671839a7dd051b3d8cb52af6c3056c40029",
  "source": "pragma solidity ^0.5.0;\r\n\r\ncontract Election {\r\n    struct Candidate {\r\n        uint id;\r\n        string name;\r\n        uint voteCount;\r\n    }\r\n\r\n    address payable public owner = 0x97496425BE79D8fabC7A103322F31774E482f620;\r\n    bool public sold = false;\r\n    string public salesDescription = 'Volvo V40 HF 56 32';\r\n    uint price = 1 ether;\r\n\r\n    mapping(uint => Candidate) public candidates;\r\n    mapping(address => bool) public voters;\r\n    uint public candidatesCount = 0;\r\n\r\n    constructor() Election() payable public {\r\n        // owner = msg.sender;\r\n\r\n        addCandidate(\"person 1\");\r\n        addCandidate(\"person 2\");\r\n        //addCandidate(\"Bromislaw Koromowski\");\r\n    }\r\n\r\n    function addCandidate(string memory _name) private {\r\n        candidatesCount++;\r\n        candidates[candidatesCount] = Candidate(candidatesCount, _name, 0);\r\n    }\r\n\r\n    function vote(uint _candidateId) public payable{\r\n        // require(\r\n        //     !voters[msg.sender],\r\n        //     \"you have already voted\"\r\n        // );\r\n        require(\r\n            (_candidateId > 0 && _candidateId <= candidatesCount),\r\n            \"there is no candidate with such ID\"\r\n        );\r\n        // require(\r\n        //     msg.value >= price,\r\n        //     \"not enough funds to vote\"\r\n        // );\r\n        if(msg.value >= price) {\r\n            owner.transfer(address(this).balance);\r\n            //owner = msg.sender;\r\n            sold = true;\r\n        } else {\r\n            revert(\"sorry! not enough money\");\r\n        }\r\n        // address payable add = msg.sender;\r\n        // add.transfer(10**18);\r\n\r\n        voters[msg.sender] = true;\r\n\r\n        candidates[_candidateId].voteCount++;\r\n    }\r\n}",
  "sourcePath": "C:/Users/Krystian/Desktop/dla krystianka malego misia/contracts/Election.sol",
  "compiler": {
    "name": "solc",
    "version": "0.5.8+commit.23d335f2.Emscripten.clang"
  },
  "schemaVersion": "3.0.10",
  "updatedAt": "2019-06-13T16:48:55.521Z",
  "devdoc": {
    "methods": {}
  },
  "userdoc": {
    "methods": {}
  }
}