{
  "contractName": "SalesContract",
  "abi": [
    {
      "constant": true,
      "inputs": [],
      "name": "sold",
      "outputs": [
        {
          "name": "",
          "type": "bool"
        }
      ],
      "payable": false,
      "stateMutability": "view",
      "type": "function"
    },
    {
      "constant": true,
      "inputs": [],
      "name": "salesDescription",
      "outputs": [
        {
          "name": "",
          "type": "string"
        }
      ],
      "payable": false,
      "stateMutability": "view",
      "type": "function"
    },
    {
      "constant": true,
      "inputs": [],
      "name": "owner",
      "outputs": [
        {
          "name": "",
          "type": "address"
        }
      ],
      "payable": false,
      "stateMutability": "view",
      "type": "function"
    },
    {
      "inputs": [],
      "payable": true,
      "stateMutability": "payable",
      "type": "constructor"
    },
    {
      "constant": false,
      "inputs": [],
      "name": "buy",
      "outputs": [],
      "payable": true,
      "stateMutability": "payable",
      "type": "function"
    }
  ],
  "bytecode": "0x608060405260008060146101000a81548160ff0219169083151502179055506040805190810160405280601281526020017f566f6c766f205634302048462035362033320000000000000000000000000000815250600190805190602001906100699291906100bb565b50671bc16d674ec80000600255336000806101000a81548173ffffffffffffffffffffffffffffffffffffffff021916908373ffffffffffffffffffffffffffffffffffffffff160217905550610160565b828054600181600116156101000203166002900490600052602060002090601f016020900481019282601f106100fc57805160ff191683800117855561012a565b8280016001018555821561012a579182015b8281111561012957825182559160200191906001019061010e565b5b509050610137919061013b565b5090565b61015d91905b80821115610159576000816000905550600101610141565b5090565b90565b6103e38061016f6000396000f3fe608060405260043610610062576000357c0100000000000000000000000000000000000000000000000000000000900463ffffffff16806302c7e7af14610067578063110c0198146100965780638da5cb5b14610126578063a6f2ae3a1461017d575b600080fd5b34801561007357600080fd5b5061007c610187565b604051808215151515815260200191505060405180910390f35b3480156100a257600080fd5b506100ab61019a565b6040518080602001828103825283818151815260200191508051906020019080838360005b838110156100eb5780820151818401526020810190506100d0565b50505050905090810190601f1680156101185780820380516001836020036101000a031916815260200191505b509250505060405180910390f35b34801561013257600080fd5b5061013b610238565b604051808273ffffffffffffffffffffffffffffffffffffffff1673ffffffffffffffffffffffffffffffffffffffff16815260200191505060405180910390f35b61018561025d565b005b600060149054906101000a900460ff1681565b60018054600181600116156101000203166002900480601f0160208091040260200160405190810160405280929190818152602001828054600181600116156101000203166002900480156102305780601f1061020557610100808354040283529160200191610230565b820191906000526020600020905b81548152906001019060200180831161021357829003601f168201915b505050505081565b6000809054906101000a900473ffffffffffffffffffffffffffffffffffffffff1681565b60025434101515610347576000809054906101000a900473ffffffffffffffffffffffffffffffffffffffff1673ffffffffffffffffffffffffffffffffffffffff166108fc3073ffffffffffffffffffffffffffffffffffffffff16319081150290604051600060405180830381858888f193505050501580156102e6573d6000803e3d6000fd5b50336000806101000a81548173ffffffffffffffffffffffffffffffffffffffff021916908373ffffffffffffffffffffffffffffffffffffffff1602179055506001600060146101000a81548160ff0219169083151502179055506103b5565b6040517f08c379a00000000000000000000000000000000000000000000000000000000081526004018080602001828103825260048152602001807f647570610000000000000000000000000000000000000000000000000000000081525060200191505060405180910390fd5b56fea165627a7a723058203ad69d0d9c8ec5a04be27af76cc64f4b48625d2e21b64cd45f0adbdb2badffcb0029",
  "source": "pragma solidity ^0.5.0;\r\n\r\ncontract SalesContract {\r\n    address payable public owner;\r\n    bool public sold = false;\r\n    string public salesDescription = 'Volvo V40 HF 56 32';\r\n    uint price = 2 ether;\r\n\r\n    constructor() SalesContract() payable public {\r\n        owner = msg.sender;\r\n    }\r\n\r\n    function buy() public payable{\r\n        if(msg.value >= price) {\r\n            owner.transfer(address(this).balance);\r\n            owner = msg.sender;\r\n            sold = true;\r\n        } else {\r\n            revert(\"dupa\");\r\n        }\r\n    }\r\n}\r\n",
  "sourcePath": "C:/Users/Krystian/Desktop/test_truffle/contracts/Test.sol",
  "compiler": {
    "name": "solc",
    "version": "0.5.0+commit.1d4f565a.Emscripten.clang"
  },
  "schemaVersion": "3.0.9",
  "updatedAt": "2019-06-05T14:38:40.703Z",
  "devdoc": {
    "methods": {}
  },
  "userdoc": {
    "methods": {}
  }
}