{
  "contractName": "Shop",
  "abi": [
    {
      "constant": true,
      "inputs": [
        {
          "name": "",
          "type": "uint256"
        }
      ],
      "name": "products",
      "outputs": [
        {
          "name": "id",
          "type": "uint256"
        },
        {
          "name": "name",
          "type": "string"
        },
        {
          "name": "owner",
          "type": "address"
        },
        {
          "name": "price",
          "type": "uint256"
        },
        {
          "name": "quantity",
          "type": "uint256"
        }
      ],
      "payable": false,
      "stateMutability": "view",
      "type": "function"
    },
    {
      "constant": true,
      "inputs": [],
      "name": "owner",
      "outputs": [
        {
          "name": "",
          "type": "address"
        }
      ],
      "payable": false,
      "stateMutability": "view",
      "type": "function"
    },
    {
      "constant": true,
      "inputs": [],
      "name": "idCounter",
      "outputs": [
        {
          "name": "",
          "type": "uint256"
        }
      ],
      "payable": false,
      "stateMutability": "view",
      "type": "function"
    },
    {
      "inputs": [],
      "payable": false,
      "stateMutability": "nonpayable",
      "type": "constructor"
    },
    {
      "constant": false,
      "inputs": [
        {
          "name": "_name",
          "type": "string"
        },
        {
          "name": "_price",
          "type": "uint256"
        },
        {
          "name": "_owner",
          "type": "address"
        },
        {
          "name": "_quantity",
          "type": "uint256"
        }
      ],
      "name": "addProduct",
      "outputs": [],
      "payable": false,
      "stateMutability": "nonpayable",
      "type": "function"
    },
    {
      "constant": false,
      "inputs": [
        {
          "name": "_productId",
          "type": "uint256"
        }
      ],
      "name": "buyProduct",
      "outputs": [],
      "payable": true,
      "stateMutability": "payable",
      "type": "function"
    }
  ],
  "bytecode": "0x60806040527397496425be79d8fabc7a103322f31774e482f6206000806101000a81548173ffffffffffffffffffffffffffffffffffffffff021916908373ffffffffffffffffffffffffffffffffffffffff160217905550600060025534801561006957600080fd5b506100db6040518060400160405280600a81526020017f6170706c656a756963650000000000000000000000000000000000000000000081525067061b31ab352c00006000809054906101000a900473ffffffffffffffffffffffffffffffffffffffff16600a6100e060201b60201c565b610276565b6040518060a0016040528060025481526020018581526020018373ffffffffffffffffffffffffffffffffffffffff1681526020018481526020018281525060016000600254815260200190815260200160002060008201518160000155602082015181600101908051906020019061015a9291906101d1565b5060408201518160020160006101000a81548173ffffffffffffffffffffffffffffffffffffffff021916908373ffffffffffffffffffffffffffffffffffffffff160217905550606082015181600301556080820151816004015590505060026000815480929190600101919050555050505050565b828054600181600116156101000203166002900490600052602060002090601f016020900481019282601f1061021257805160ff1916838001178555610240565b82800160010185558215610240579182015b8281111561023f578251825591602001919060010190610224565b5b50905061024d9190610251565b5090565b61027391905b8082111561026f576000816000905550600101610257565b5090565b90565b61093b806102856000396000f3fe60806040526004361061004a5760003560e01c80635f67bd0f1461004f5780637acc0b201461014b5780638642269e146102475780638da5cb5b14610275578063eb08ab28146102cc575b600080fd5b34801561005b57600080fd5b506101496004803603608081101561007257600080fd5b810190808035906020019064010000000081111561008f57600080fd5b8201836020820111156100a157600080fd5b803590602001918460018302840111640100000000831117156100c357600080fd5b91908080601f016020809104026020016040519081016040528093929190818152602001838380828437600081840152601f19601f82011690508083019250505050505050919291929080359060200190929190803573ffffffffffffffffffffffffffffffffffffffff169060200190929190803590602001909291905050506102f7565b005b34801561015757600080fd5b506101846004803603602081101561016e57600080fd5b81019080803590602001909291905050506103e8565b60405180868152602001806020018573ffffffffffffffffffffffffffffffffffffffff1673ffffffffffffffffffffffffffffffffffffffff168152602001848152602001838152602001828103825286818151815260200191508051906020019080838360005b838110156102085780820151818401526020810190506101ed565b50505050905090810190601f1680156102355780820380516001836020036101000a031916815260200191505b50965050505050505060405180910390f35b6102736004803603602081101561025d57600080fd5b81019080803590602001909291905050506104d6565b005b34801561028157600080fd5b5061028a6107fa565b604051808273ffffffffffffffffffffffffffffffffffffffff1673ffffffffffffffffffffffffffffffffffffffff16815260200191505060405180910390f35b3480156102d857600080fd5b506102e161081f565b6040518082815260200191505060405180910390f35b6040518060a0016040528060025481526020018581526020018373ffffffffffffffffffffffffffffffffffffffff16815260200184815260200182815250600160006002548152602001908152602001600020600082015181600001556020820151816001019080519060200190610371929190610825565b5060408201518160020160006101000a81548173ffffffffffffffffffffffffffffffffffffffff021916908373ffffffffffffffffffffffffffffffffffffffff160217905550606082015181600301556080820151816004015590505060026000815480929190600101919050555050505050565b6001602052806000526040600020600091509050806000015490806001018054600181600116156101000203166002900480601f01602080910402602001604051908101604052809291908181526020018280546001816001161561010002031660029004801561049a5780601f1061046f5761010080835404028352916020019161049a565b820191906000526020600020905b81548152906001019060200180831161047d57829003601f168201915b5050505050908060020160009054906101000a900473ffffffffffffffffffffffffffffffffffffffff16908060030154908060040154905085565b6104de6108a5565b600160008381526020019081526020016000206040518060a001604052908160008201548152602001600182018054600181600116156101000203166002900480601f01602080910402602001604051908101604052809291908181526020018280546001816001161561010002031660029004801561059f5780601f106105745761010080835404028352916020019161059f565b820191906000526020600020905b81548152906001019060200180831161058257829003601f168201915b505050505081526020016002820160009054906101000a900473ffffffffffffffffffffffffffffffffffffffff1673ffffffffffffffffffffffffffffffffffffffff1673ffffffffffffffffffffffffffffffffffffffff168152602001600382015481526020016004820154815250509050806060015134101561068e576040517f08c379a00000000000000000000000000000000000000000000000000000000081526004018080602001828103825260108152602001807f6e6f7420656e6f7567682066756e64730000000000000000000000000000000081525060200191505060405180910390fd5b60008160600151348161069d57fe5b049050816080015181116107f5576000826060015134816106ba57fe5b0690506000813403905082846060015102811461073f576040517f08c379a00000000000000000000000000000000000000000000000000000000081526004018080602001828103825260138152602001807f76616c756520646f65736e2774206d617463680000000000000000000000000081525060200191505060405180910390fd5b828460800151036001600087815260200190815260200160002060040181905550836040015173ffffffffffffffffffffffffffffffffffffffff166108fc829081150290604051600060405180830381858888f193505050501580156107aa573d6000803e3d6000fd5b503373ffffffffffffffffffffffffffffffffffffffff166108fc839081150290604051600060405180830381858888f193505050501580156107f1573d6000803e3d6000fd5b5050505b505050565b6000809054906101000a900473ffffffffffffffffffffffffffffffffffffffff1681565b60025481565b828054600181600116156101000203166002900490600052602060002090601f016020900481019282601f1061086657805160ff1916838001178555610894565b82800160010185558215610894579182015b82811115610893578251825591602001919060010190610878565b5b5090506108a191906108ea565b5090565b6040518060a001604052806000815260200160608152602001600073ffffffffffffffffffffffffffffffffffffffff16815260200160008152602001600081525090565b61090c91905b808211156109085760008160009055506001016108f0565b5090565b9056fea165627a7a72305820481ac436f4dc6569d0259e02dc8ea20b3c8448605fa4edb607b53b19e43de16e0029",
  "source": "pragma solidity ^0.5.0;\r\n\r\n\r\ncontract Shop {\r\n    struct Product {\r\n        uint256 id;\r\n        string name;\r\n        address payable owner;\r\n        uint256 price;\r\n        uint256 quantity;\r\n    }\r\n\r\n    address payable public owner = 0x97496425BE79D8fabC7A103322F31774E482f620;\r\n\r\n    mapping(uint256 => Product) public products;\r\n    uint256 public idCounter = 0;\r\n\r\n    constructor() Shop() public {\r\n        addProduct(\"applejuice\", 0.44 ether, owner, 10);\r\n    }\r\n\r\n    function addProduct(string memory _name, uint256 _price, address payable _owner, uint256 _quantity) public {\r\n        products[idCounter] = Product(idCounter, _name, _owner, _price, _quantity);\r\n        idCounter++;\r\n    }\r\n\r\n    function buyProduct(uint256 _productId) public payable{\r\n        Product memory product = products[_productId];\r\n\r\n        require(msg.value >= product.price, \"not enough funds\");\r\n        uint256 quantityToBuy = msg.value / product.price;\r\n\r\n        if (quantityToBuy <= product.quantity) {\r\n            uint256 change = msg.value % product.price;\r\n            uint256 valueToSend = msg.value - change;\r\n            require(valueToSend == product.price * quantityToBuy, \"value doesn't match\");\r\n\r\n            products[_productId].quantity = product.quantity - quantityToBuy;\r\n            product.owner.transfer(valueToSend);\r\n            msg.sender.transfer(change);\r\n        }\r\n        //return quantityToBuy;\r\n\r\n\r\n        // require(\r\n        //     (_candidateId > 0 && _candidateId <= candidatesCount),\r\n        //     \"there is no candidate with such ID\"\r\n        // );\r\n        // voters[msg.sender] = true;\r\n\r\n        // candidates[_candidateId].voteCount++;\r\n    }\r\n}",
  "sourcePath": "C:/Users/Krystian/Desktop/dla krystianka malego misia/contracts/Shop.sol",
  "compiler": {
    "name": "solc",
    "version": "0.5.8+commit.23d335f2.Emscripten.clang"
  },
  "schemaVersion": "3.0.10",
  "updatedAt": "2019-06-14T19:39:49.688Z",
  "devdoc": {
    "methods": {}
  },
  "userdoc": {
    "methods": {}
  }
}