{
  "contractName": "Shop",
  "abi": [
    {
      "constant": true,
      "inputs": [
        {
          "name": "",
          "type": "uint256"
        }
      ],
      "name": "products",
      "outputs": [
        {
          "name": "id",
          "type": "uint256"
        },
        {
          "name": "name",
          "type": "string"
        },
        {
          "name": "owner",
          "type": "address"
        },
        {
          "name": "price",
          "type": "uint256"
        },
        {
          "name": "quantity",
          "type": "uint256"
        }
      ],
      "payable": false,
      "stateMutability": "view",
      "type": "function"
    },
    {
      "constant": true,
      "inputs": [],
      "name": "owner",
      "outputs": [
        {
          "name": "",
          "type": "address"
        }
      ],
      "payable": false,
      "stateMutability": "view",
      "type": "function"
    },
    {
      "constant": true,
      "inputs": [],
      "name": "idCounter",
      "outputs": [
        {
          "name": "",
          "type": "uint256"
        }
      ],
      "payable": false,
      "stateMutability": "view",
      "type": "function"
    },
    {
      "inputs": [],
      "payable": false,
      "stateMutability": "nonpayable",
      "type": "constructor"
    },
    {
      "anonymous": false,
      "inputs": [],
      "name": "boughtEvent",
      "type": "event"
    },
    {
      "constant": false,
      "inputs": [
        {
          "name": "_name",
          "type": "string"
        },
        {
          "name": "_price",
          "type": "uint256"
        },
        {
          "name": "_owner",
          "type": "address"
        },
        {
          "name": "_quantity",
          "type": "uint256"
        }
      ],
      "name": "addProduct",
      "outputs": [],
      "payable": false,
      "stateMutability": "nonpayable",
      "type": "function"
    },
    {
      "constant": false,
      "inputs": [
        {
          "name": "_productId",
          "type": "uint256"
        },
        {
          "name": "_quantity",
          "type": "uint256"
        }
      ],
      "name": "buyProduct",
      "outputs": [],
      "payable": true,
      "stateMutability": "payable",
      "type": "function"
    }
  ],
  "bytecode": "0x60806040527397496425be79d8fabc7a103322f31774e482f6206000806101000a81548173ffffffffffffffffffffffffffffffffffffffff021916908373ffffffffffffffffffffffffffffffffffffffff160217905550600060025534801561006957600080fd5b506100db6040518060400160405280600981526020017f436f6c6120f09fa5a4000000000000000000000000000000000000000000000081525067061b31ab352c00006000809054906101000a900473ffffffffffffffffffffffffffffffffffffffff16600a61031460201b60201c565b61014b6040518060400160405280600a81526020017f4170706c6520f09f8d8f0000000000000000000000000000000000000000000081525066b1a2bc2ec500006000809054906101000a900473ffffffffffffffffffffffffffffffffffffffff16606461031460201b60201c565b6101bc6040518060400160405280600b81526020017f546f6d61746f20f09f8d8500000000000000000000000000000000000000000081525067016345785d8a00006000809054906101000a900473ffffffffffffffffffffffffffffffffffffffff1660fa61031460201b60201c565b61022d6040518060400160405280600a81526020017f50697a7a6120f09f8d95000000000000000000000000000000000000000000008152506702c68af0bb1400006000809054906101000a900473ffffffffffffffffffffffffffffffffffffffff1660fa61031460201b60201c565b61029e6040518060400160405280600a81526020017f537573686920f09f8da300000000000000000000000000000000000000000000815250670214e8348c4f00006000809054906101000a900473ffffffffffffffffffffffffffffffffffffffff1660fa61031460201b60201c565b61030f6040518060400160405280600c81526020017f436f636f6e757420f09fa5a5000000000000000000000000000000000000000081525067011c37937e0800006000809054906101000a900473ffffffffffffffffffffffffffffffffffffffff1660fa61031460201b60201c565b6104aa565b6040518060a0016040528060025481526020018581526020018373ffffffffffffffffffffffffffffffffffffffff1681526020018481526020018281525060016000600254815260200190815260200160002060008201518160000155602082015181600101908051906020019061038e929190610405565b5060408201518160020160006101000a81548173ffffffffffffffffffffffffffffffffffffffff021916908373ffffffffffffffffffffffffffffffffffffffff160217905550606082015181600301556080820151816004015590505060026000815480929190600101919050555050505050565b828054600181600116156101000203166002900490600052602060002090601f016020900481019282601f1061044657805160ff1916838001178555610474565b82800160010185558215610474579182015b82811115610473578251825591602001919060010190610458565b5b5090506104819190610485565b5090565b6104a791905b808211156104a357600081600090555060010161048b565b5090565b90565b61095980620004ba6000396000f3fe60806040526004361061004a5760003560e01c806353b628661461004f5780635f67bd0f146100875780637acc0b20146101835780638da5cb5b1461027f578063eb08ab28146102d6575b600080fd5b6100856004803603604081101561006557600080fd5b810190808035906020019092919080359060200190929190505050610301565b005b34801561009357600080fd5b50610181600480360360808110156100aa57600080fd5b81019080803590602001906401000000008111156100c757600080fd5b8201836020820111156100d957600080fd5b803590602001918460018302840111640100000000831117156100fb57600080fd5b91908080601f016020809104026020016040519081016040528093929190818152602001838380828437600081840152601f19601f82011690508083019250505050505050919291929080359060200190929190803573ffffffffffffffffffffffffffffffffffffffff16906020019092919080359060200190929190505050610639565b005b34801561018f57600080fd5b506101bc600480360360208110156101a657600080fd5b810190808035906020019092919050505061072a565b60405180868152602001806020018573ffffffffffffffffffffffffffffffffffffffff1673ffffffffffffffffffffffffffffffffffffffff168152602001848152602001838152602001828103825286818151815260200191508051906020019080838360005b83811015610240578082015181840152602081019050610225565b50505050905090810190601f16801561026d5780820380516001836020036101000a031916815260200191505b50965050505050505060405180910390f35b34801561028b57600080fd5b50610294610818565b604051808273ffffffffffffffffffffffffffffffffffffffff1673ffffffffffffffffffffffffffffffffffffffff16815260200191505060405180910390f35b3480156102e257600080fd5b506102eb61083d565b6040518082815260200191505060405180910390f35b610309610843565b600160008481526020019081526020016000206040518060a001604052908160008201548152602001600182018054600181600116156101000203166002900480601f0160208091040260200160405190810160405280929190818152602001828054600181600116156101000203166002900480156103ca5780601f1061039f576101008083540402835291602001916103ca565b820191906000526020600020905b8154815290600101906020018083116103ad57829003601f168201915b505050505081526020016002820160009054906101000a900473ffffffffffffffffffffffffffffffffffffffff1673ffffffffffffffffffffffffffffffffffffffff1673ffffffffffffffffffffffffffffffffffffffff168152602001600382015481526020016004820154815250509050600082905081608001518111156104be576040517f08c379a000000000000000000000000000000000000000000000000000000000815260040180806020018281038252601c8152602001807f6e6f7420656e6f7567682070726f647563747320696e2073746f636b0000000081525060200191505060405180910390fd5b6000826060015134816104cd57fe5b06905060008134039050828460600151028114610552576040517f08c379a00000000000000000000000000000000000000000000000000000000081526004018080602001828103825260138152602001807f76616c756520646f65736e2774206d617463680000000000000000000000000081525060200191505060405180910390fd5b828460800151036001600088815260200190815260200160002060040181905550836040015173ffffffffffffffffffffffffffffffffffffffff166108fc829081150290604051600060405180830381858888f193505050501580156105bd573d6000803e3d6000fd5b503373ffffffffffffffffffffffffffffffffffffffff166108fc839081150290604051600060405180830381858888f19350505050158015610604573d6000803e3d6000fd5b507fe72b6e5692321f2883d96fb8196408190ca58e5a87701852566c18df824e16ff60405160405180910390a1505050505050565b6040518060a0016040528060025481526020018581526020018373ffffffffffffffffffffffffffffffffffffffff168152602001848152602001828152506001600060025481526020019081526020016000206000820151816000015560208201518160010190805190602001906106b3929190610888565b5060408201518160020160006101000a81548173ffffffffffffffffffffffffffffffffffffffff021916908373ffffffffffffffffffffffffffffffffffffffff160217905550606082015181600301556080820151816004015590505060026000815480929190600101919050555050505050565b6001602052806000526040600020600091509050806000015490806001018054600181600116156101000203166002900480601f0160208091040260200160405190810160405280929190818152602001828054600181600116156101000203166002900480156107dc5780601f106107b1576101008083540402835291602001916107dc565b820191906000526020600020905b8154815290600101906020018083116107bf57829003601f168201915b5050505050908060020160009054906101000a900473ffffffffffffffffffffffffffffffffffffffff16908060030154908060040154905085565b6000809054906101000a900473ffffffffffffffffffffffffffffffffffffffff1681565b60025481565b6040518060a001604052806000815260200160608152602001600073ffffffffffffffffffffffffffffffffffffffff16815260200160008152602001600081525090565b828054600181600116156101000203166002900490600052602060002090601f016020900481019282601f106108c957805160ff19168380011785556108f7565b828001600101855582156108f7579182015b828111156108f65782518255916020019190600101906108db565b5b5090506109049190610908565b5090565b61092a91905b8082111561092657600081600090555060010161090e565b5090565b9056fea165627a7a72305820e2d2d401886e7d456f51f39b517fe80d3eabe464b6d9148716531b781f57d1240029",
  "source": "pragma solidity ^0.5.0;\r\n\r\n\r\ncontract Shop {\r\n    struct Product {\r\n        uint256 id;\r\n        string name;\r\n        address payable owner;\r\n        uint256 price;\r\n        uint256 quantity;\r\n    }\r\n\r\n    address payable public owner = 0x97496425BE79D8fabC7A103322F31774E482f620;\r\n\r\n    mapping(uint256 => Product) public products;\r\n    uint256 public idCounter = 0;\r\n\r\n    constructor() Shop() public {\r\n        addProduct(\"Cola 🥤\", 0.44 ether, owner, 10);\r\n        addProduct(\"Apple 🍏\", 0.05 ether, owner, 100);\r\n        addProduct(\"Tomato 🍅\", 0.1 ether, owner, 250);\r\n        addProduct(\"Pizza 🍕\", 0.2 ether, owner, 250);\r\n        addProduct(\"Sushi 🍣\", 0.15 ether, owner, 250);\r\n        addProduct(\"Coconut 🥥\", 0.08 ether, owner, 250);\r\n    }\r\n\r\n    event boughtEvent();\r\n\r\n    function addProduct(string memory _name, uint256 _price, address payable _owner, uint256 _quantity) public {\r\n        products[idCounter] = Product(idCounter, _name, _owner, _price, _quantity);\r\n        idCounter++;\r\n    }\r\n\r\n    function buyProduct(uint256 _productId, uint256 _quantity) public payable{\r\n        Product memory product = products[_productId];\r\n\r\n        //require(msg.value >= product.price, \"not enough funds\");\r\n        //uint256 quantityToBuy = msg.value / product.price;\r\n\r\n        uint256 quantityToBuy = _quantity;\r\n\r\n        require(quantityToBuy <= product.quantity, \"not enough products in stock\");\r\n        uint256 change = msg.value % product.price;\r\n        uint256 valueToSend = msg.value - change;\r\n        \r\n        require(valueToSend == product.price * quantityToBuy, \"value doesn't match\");\r\n        \r\n        products[_productId].quantity = product.quantity - quantityToBuy;\r\n        product.owner.transfer(valueToSend);\r\n        msg.sender.transfer(change);\r\n        emit boughtEvent();\r\n        \r\n        //return quantityToBuy;\r\n\r\n\r\n        // require(\r\n        //     (_candidateId > 0 && _candidateId <= candidatesCount),\r\n        //     \"there is no candidate with such ID\"\r\n        // );\r\n        // voters[msg.sender] = true;\r\n\r\n        // candidates[_candidateId].voteCount++;\r\n    }\r\n}",
  "sourcePath": "C:/Users/Krystian/Downloads/groceryshop-master/web3Shop/contracts/Shop.sol",
  "compiler": {
    "name": "solc",
    "version": "0.5.8+commit.23d335f2.Emscripten.clang"
  },
  "schemaVersion": "3.0.10",
  "updatedAt": "2019-06-16T09:41:39.240Z",
  "devdoc": {
    "methods": {}
  },
  "userdoc": {
    "methods": {}
  }
}